{
    "_format": "hh-sol-artifact-1",
    "contractName": "DrivingLicenseNFT",
    "sourceName": "contracts/DrivingLicenseNFT.sol",
    "abi": [
        {
            "inputs": [
                {
                    "internalType": "address",
                    "name": "initialOwner",
                    "type": "address"
                }
            ],
            "stateMutability": "nonpayable",
            "type": "constructor"
        },
        {
            "inputs": [
                {
                    "internalType": "address",
                    "name": "sender",
                    "type": "address"
                },
                {
                    "internalType": "uint256",
                    "name": "tokenId",
                    "type": "uint256"
                },
                {
                    "internalType": "address",
                    "name": "owner",
                    "type": "address"
                }
            ],
            "name": "ERC721IncorrectOwner",
            "type": "error"
        },
        {
            "inputs": [
                {
                    "internalType": "address",
                    "name": "operator",
                    "type": "address"
                },
                {
                    "internalType": "uint256",
                    "name": "tokenId",
                    "type": "uint256"
                }
            ],
            "name": "ERC721InsufficientApproval",
            "type": "error"
        },
        {
            "inputs": [
                {
                    "internalType": "address",
                    "name": "approver",
                    "type": "address"
                }
            ],
            "name": "ERC721InvalidApprover",
            "type": "error"
        },
        {
            "inputs": [
                {
                    "internalType": "address",
                    "name": "operator",
                    "type": "address"
                }
            ],
            "name": "ERC721InvalidOperator",
            "type": "error"
        },
        {
            "inputs": [
                {
                    "internalType": "address",
                    "name": "owner",
                    "type": "address"
                }
            ],
            "name": "ERC721InvalidOwner",
            "type": "error"
        },
        {
            "inputs": [
                {
                    "internalType": "address",
                    "name": "receiver",
                    "type": "address"
                }
            ],
            "name": "ERC721InvalidReceiver",
            "type": "error"
        },
        {
            "inputs": [
                {
                    "internalType": "address",
                    "name": "sender",
                    "type": "address"
                }
            ],
            "name": "ERC721InvalidSender",
            "type": "error"
        },
        {
            "inputs": [
                {
                    "internalType": "uint256",
                    "name": "tokenId",
                    "type": "uint256"
                }
            ],
            "name": "ERC721NonexistentToken",
            "type": "error"
        },
        {
            "inputs": [
                {
                    "internalType": "address",
                    "name": "owner",
                    "type": "address"
                }
            ],
            "name": "OwnableInvalidOwner",
            "type": "error"
        },
        {
            "inputs": [
                {
                    "internalType": "address",
                    "name": "account",
                    "type": "address"
                }
            ],
            "name": "OwnableUnauthorizedAccount",
            "type": "error"
        },
        {
            "anonymous": false,
            "inputs": [
                {
                    "indexed": true,
                    "internalType": "address",
                    "name": "owner",
                    "type": "address"
                },
                {
                    "indexed": true,
                    "internalType": "address",
                    "name": "approved",
                    "type": "address"
                },
                {
                    "indexed": true,
                    "internalType": "uint256",
                    "name": "tokenId",
                    "type": "uint256"
                }
            ],
            "name": "Approval",
            "type": "event"
        },
        {
            "anonymous": false,
            "inputs": [
                {
                    "indexed": true,
                    "internalType": "address",
                    "name": "owner",
                    "type": "address"
                },
                {
                    "indexed": true,
                    "internalType": "address",
                    "name": "operator",
                    "type": "address"
                },
                {
                    "indexed": false,
                    "internalType": "bool",
                    "name": "approved",
                    "type": "bool"
                }
            ],
            "name": "ApprovalForAll",
            "type": "event"
        },
        {
            "anonymous": false,
            "inputs": [
                {
                    "indexed": true,
                    "internalType": "address",
                    "name": "previousOwner",
                    "type": "address"
                },
                {
                    "indexed": true,
                    "internalType": "address",
                    "name": "newOwner",
                    "type": "address"
                }
            ],
            "name": "OwnershipTransferred",
            "type": "event"
        },
        {
            "anonymous": false,
            "inputs": [
                {
                    "indexed": true,
                    "internalType": "address",
                    "name": "from",
                    "type": "address"
                },
                {
                    "indexed": true,
                    "internalType": "address",
                    "name": "to",
                    "type": "address"
                },
                {
                    "indexed": true,
                    "internalType": "uint256",
                    "name": "tokenId",
                    "type": "uint256"
                }
            ],
            "name": "Transfer",
            "type": "event"
        },
        {
            "inputs": [
                {
                    "internalType": "address",
                    "name": "_authority",
                    "type": "address"
                }
            ],
            "name": "addAuthority",
            "outputs": [],
            "stateMutability": "nonpayable",
            "type": "function"
        },
        {
            "inputs": [
                {
                    "internalType": "address",
                    "name": "to",
                    "type": "address"
                },
                {
                    "internalType": "uint256",
                    "name": "tokenId",
                    "type": "uint256"
                }
            ],
            "name": "approve",
            "outputs": [],
            "stateMutability": "nonpayable",
            "type": "function"
        },
        {
            "inputs": [
                {
                    "internalType": "address",
                    "name": "",
                    "type": "address"
                }
            ],
            "name": "authorities",
            "outputs": [
                {
                    "internalType": "bool",
                    "name": "",
                    "type": "bool"
                }
            ],
            "stateMutability": "view",
            "type": "function"
        },
        {
            "inputs": [
                {
                    "internalType": "address",
                    "name": "owner",
                    "type": "address"
                }
            ],
            "name": "balanceOf",
            "outputs": [
                {
                    "internalType": "uint256",
                    "name": "",
                    "type": "uint256"
                }
            ],
            "stateMutability": "view",
            "type": "function"
        },
        {
            "inputs": [
                {
                    "internalType": "uint256",
                    "name": "tokenId",
                    "type": "uint256"
                }
            ],
            "name": "getApproved",
            "outputs": [
                {
                    "internalType": "address",
                    "name": "",
                    "type": "address"
                }
            ],
            "stateMutability": "view",
            "type": "function"
        },
        {
            "inputs": [
                {
                    "internalType": "uint256",
                    "name": "_tokenId",
                    "type": "uint256"
                }
            ],
            "name": "getLicense",
            "outputs": [
                {
                    "components": [
                        {
                            "internalType": "string",
                            "name": "licenseId",
                            "type": "string"
                        },
                        {
                            "internalType": "string",
                            "name": "holderId",
                            "type": "string"
                        },
                        {
                            "internalType": "string",
                            "name": "name",
                            "type": "string"
                        },
                        {
                            "internalType": "string",
                            "name": "dob",
                            "type": "string"
                        },
                        {
                            "internalType": "string",
                            "name": "licenseType",
                            "type": "string"
                        },
                        {
                            "internalType": "uint256",
                            "name": "issueDate",
                            "type": "uint256"
                        },
                        {
                            "internalType": "uint256",
                            "name": "expiryDate",
                            "type": "uint256"
                        },
                        {
                            "internalType": "string",
                            "name": "status",
                            "type": "string"
                        },
                        {
                            "internalType": "string",
                            "name": "dataHash",
                            "type": "string"
                        },
                        {
                            "internalType": "string",
                            "name": "authorityId",
                            "type": "string"
                        }
                    ],
                    "internalType": "struct DrivingLicenseNFT.License",
                    "name": "",
                    "type": "tuple"
                }
            ],
            "stateMutability": "view",
            "type": "function"
        },
        {
            "inputs": [
                {
                    "internalType": "address",
                    "name": "owner",
                    "type": "address"
                },
                {
                    "internalType": "address",
                    "name": "operator",
                    "type": "address"
                }
            ],
            "name": "isApprovedForAll",
            "outputs": [
                {
                    "internalType": "bool",
                    "name": "",
                    "type": "bool"
                }
            ],
            "stateMutability": "view",
            "type": "function"
        },
        {
            "inputs": [
                {
                    "internalType": "string",
                    "name": "_licenseId",
                    "type": "string"
                },
                {
                    "internalType": "address",
                    "name": "_holder",
                    "type": "address"
                },
                {
                    "internalType": "string",
                    "name": "_holderId",
                    "type": "string"
                },
                {
                    "internalType": "string",
                    "name": "_name",
                    "type": "string"
                },
                {
                    "internalType": "string",
                    "name": "_dob",
                    "type": "string"
                },
                {
                    "internalType": "string",
                    "name": "_licenseType",
                    "type": "string"
                },
                {
                    "internalType": "uint256",
                    "name": "_issueDate",
                    "type": "uint256"
                },
                {
                    "internalType": "uint256",
                    "name": "_expiryDate",
                    "type": "uint256"
                },
                {
                    "internalType": "string",
                    "name": "_dataHash",
                    "type": "string"
                },
                {
                    "internalType": "string",
                    "name": "_authorityId",
                    "type": "string"
                }
            ],
            "name": "issueLicense",
            "outputs": [
                {
                    "internalType": "uint256",
                    "name": "",
                    "type": "uint256"
                }
            ],
            "stateMutability": "nonpayable",
            "type": "function"
        },
        {
            "inputs": [
                {
                    "internalType": "string",
                    "name": "",
                    "type": "string"
                }
            ],
            "name": "licenseIdToTokenId",
            "outputs": [
                {
                    "internalType": "uint256",
                    "name": "",
                    "type": "uint256"
                }
            ],
            "stateMutability": "view",
            "type": "function"
        },
        {
            "inputs": [
                {
                    "internalType": "uint256",
                    "name": "",
                    "type": "uint256"
                }
            ],
            "name": "licenses",
            "outputs": [
                {
                    "internalType": "string",
                    "name": "licenseId",
                    "type": "string"
                },
                {
                    "internalType": "string",
                    "name": "holderId",
                    "type": "string"
                },
                {
                    "internalType": "string",
                    "name": "name",
                    "type": "string"
                },
                {
                    "internalType": "string",
                    "name": "dob",
                    "type": "string"
                },
                {
                    "internalType": "string",
                    "name": "licenseType",
                    "type": "string"
                },
                {
                    "internalType": "uint256",
                    "name": "issueDate",
                    "type": "uint256"
                },
                {
                    "internalType": "uint256",
                    "name": "expiryDate",
                    "type": "uint256"
                },
                {
                    "internalType": "string",
                    "name": "status",
                    "type": "string"
                },
                {
                    "internalType": "string",
                    "name": "dataHash",
                    "type": "string"
                },
                {
                    "internalType": "string",
                    "name": "authorityId",
                    "type": "string"
                }
            ],
            "stateMutability": "view",
            "type": "function"
        },
        {
            "inputs": [],
            "name": "name",
            "outputs": [
                {
                    "internalType": "string",
                    "name": "",
                    "type": "string"
                }
            ],
            "stateMutability": "view",
            "type": "function"
        },
        {
            "inputs": [],
            "name": "owner",
            "outputs": [
                {
                    "internalType": "address",
                    "name": "",
                    "type": "address"
                }
            ],
            "stateMutability": "view",
            "type": "function"
        },
        {
            "inputs": [
                {
                    "internalType": "uint256",
                    "name": "tokenId",
                    "type": "uint256"
                }
            ],
            "name": "ownerOf",
            "outputs": [
                {
                    "internalType": "address",
                    "name": "",
                    "type": "address"
                }
            ],
            "stateMutability": "view",
            "type": "function"
        },
        {
            "inputs": [
                {
                    "internalType": "string",
                    "name": "_licenseId",
                    "type": "string"
                },
                {
                    "internalType": "uint256",
                    "name": "_newExpiryDate",
                    "type": "uint256"
                }
            ],
            "name": "renewLicense",
            "outputs": [],
            "stateMutability": "nonpayable",
            "type": "function"
        },
        {
            "inputs": [],
            "name": "renounceOwnership",
            "outputs": [],
            "stateMutability": "nonpayable",
            "type": "function"
        },
        {
            "inputs": [
                {
                    "internalType": "string",
                    "name": "_licenseId",
                    "type": "string"
                }
            ],
            "name": "revokeLicense",
            "outputs": [],
            "stateMutability": "nonpayable",
            "type": "function"
        },
        {
            "inputs": [
                {
                    "internalType": "address",
                    "name": "from",
                    "type": "address"
                },
                {
                    "internalType": "address",
                    "name": "to",
                    "type": "address"
                },
                {
                    "internalType": "uint256",
                    "name": "tokenId",
                    "type": "uint256"
                }
            ],
            "name": "safeTransferFrom",
            "outputs": [],
            "stateMutability": "nonpayable",
            "type": "function"
        },
        {
            "inputs": [
                {
                    "internalType": "address",
                    "name": "from",
                    "type": "address"
                },
                {
                    "internalType": "address",
                    "name": "to",
                    "type": "address"
                },
                {
                    "internalType": "uint256",
                    "name": "tokenId",
                    "type": "uint256"
                },
                {
                    "internalType": "bytes",
                    "name": "data",
                    "type": "bytes"
                }
            ],
            "name": "safeTransferFrom",
            "outputs": [],
            "stateMutability": "nonpayable",
            "type": "function"
        },
        {
            "inputs": [
                {
                    "internalType": "address",
                    "name": "operator",
                    "type": "address"
                },
                {
                    "internalType": "bool",
                    "name": "approved",
                    "type": "bool"
                }
            ],
            "name": "setApprovalForAll",
            "outputs": [],
            "stateMutability": "nonpayable",
            "type": "function"
        },
        {
            "inputs": [
                {
                    "internalType": "bytes4",
                    "name": "interfaceId",
                    "type": "bytes4"
                }
            ],
            "name": "supportsInterface",
            "outputs": [
                {
                    "internalType": "bool",
                    "name": "",
                    "type": "bool"
                }
            ],
            "stateMutability": "view",
            "type": "function"
        },
        {
            "inputs": [],
            "name": "symbol",
            "outputs": [
                {
                    "internalType": "string",
                    "name": "",
                    "type": "string"
                }
            ],
            "stateMutability": "view",
            "type": "function"
        },
        {
            "inputs": [
                {
                    "internalType": "uint256",
                    "name": "_tokenId",
                    "type": "uint256"
                }
            ],
            "name": "tokenURI",
            "outputs": [
                {
                    "internalType": "string",
                    "name": "",
                    "type": "string"
                }
            ],
            "stateMutability": "view",
            "type": "function"
        },
        {
            "inputs": [
                {
                    "internalType": "address",
                    "name": "from",
                    "type": "address"
                },
                {
                    "internalType": "address",
                    "name": "to",
                    "type": "address"
                },
                {
                    "internalType": "uint256",
                    "name": "tokenId",
                    "type": "uint256"
                }
            ],
            "name": "transferFrom",
            "outputs": [],
            "stateMutability": "nonpayable",
            "type": "function"
        },
        {
            "inputs": [
                {
                    "internalType": "address",
                    "name": "newOwner",
                    "type": "address"
                }
            ],
            "name": "transferOwnership",
            "outputs": [],
            "stateMutability": "nonpayable",
            "type": "function"
        }
    ],
    "bytecode": "0x60806040523480156200001157600080fd5b50604051620042dd380380620042dd8339818101604052810190620000379190620002e0565b806040518060400160405280601181526020017f44726976696e674c6963656e73654e46540000000000000000000000000000008152506040518060400160405280600581526020017f444c4e46540000000000000000000000000000000000000000000000000000008152508160009081620000b591906200058c565b508060019081620000c791906200058c565b505050600073ffffffffffffffffffffffffffffffffffffffff168173ffffffffffffffffffffffffffffffffffffffff16036200013f5760006040517f1e4fbdf700000000000000000000000000000000000000000000000000000000815260040162000136919062000684565b60405180910390fd5b6200015081620001b060201b60201c565b506001600a60008373ffffffffffffffffffffffffffffffffffffffff1673ffffffffffffffffffffffffffffffffffffffff16815260200190815260200160002060006101000a81548160ff02191690831515021790555050620006a1565b6000600660009054906101000a900473ffffffffffffffffffffffffffffffffffffffff16905081600660006101000a81548173ffffffffffffffffffffffffffffffffffffffff021916908373ffffffffffffffffffffffffffffffffffffffff1602179055508173ffffffffffffffffffffffffffffffffffffffff168173ffffffffffffffffffffffffffffffffffffffff167f8be0079c531659141344cd1fd0a4f28419497f9722a3daafe3b4186f6b6457e060405160405180910390a35050565b600080fd5b600073ffffffffffffffffffffffffffffffffffffffff82169050919050565b6000620002a8826200027b565b9050919050565b620002ba816200029b565b8114620002c657600080fd5b50565b600081519050620002da81620002af565b92915050565b600060208284031215620002f957620002f862000276565b5b60006200030984828501620002c9565b91505092915050565b600081519050919050565b7f4e487b7100000000000000000000000000000000000000000000000000000000600052604160045260246000fd5b7f4e487b7100000000000000000000000000000000000000000000000000000000600052602260045260246000fd5b600060028204905060018216806200039457607f821691505b602082108103620003aa57620003a96200034c565b5b50919050565b60008190508160005260206000209050919050565b60006020601f8301049050919050565b600082821b905092915050565b600060088302620004147fffffffffffffffffffffffffffffffffffffffffffffffffffffffffffffffff82620003d5565b620004208683620003d5565b95508019841693508086168417925050509392505050565b6000819050919050565b6000819050919050565b60006200046d62000467620004618462000438565b62000442565b62000438565b9050919050565b6000819050919050565b62000489836200044c565b620004a1620004988262000474565b848454620003e2565b825550505050565b600090565b620004b8620004a9565b620004c58184846200047e565b505050565b5b81811015620004ed57620004e1600082620004ae565b600181019050620004cb565b5050565b601f8211156200053c576200050681620003b0565b6200051184620003c5565b8101602085101562000521578190505b620005396200053085620003c5565b830182620004ca565b50505b505050565b600082821c905092915050565b6000620005616000198460080262000541565b1980831691505092915050565b60006200057c83836200054e565b9150826002028217905092915050565b620005978262000312565b67ffffffffffffffff811115620005b357620005b26200031d565b5b620005bf82546200037b565b620005cc828285620004f1565b600060209050601f831160018114620006045760008415620005ef578287015190505b620005fb85826200056e565b8655506200066b565b601f1984166200061486620003b0565b60005b828110156200063e5784890151825560018201915060208501945060208101905062000617565b868310156200065e57848901516200065a601f8916826200054e565b8355505b6001600288020188555050505b505050505050565b6200067e816200029b565b82525050565b60006020820190506200069b600083018462000673565b92915050565b613c2c80620006b16000396000f3fe608060405234801561001057600080fd5b50600436106101585760003560e01c806391223d69116100c3578063c87b56dd1161007c578063c87b56dd146103de578063d02c4ed71461040e578063d29d34861461042a578063d3686aba1461045a578063e985e9c51461048a578063f2fde38b146104ba57610158565b806391223d691461030c57806395d89b411461033c578063a22cb4651461035a578063b2c7f9a614610376578063b2dd121214610392578063b88d4fde146103c257610158565b80633379084511610115578063337908451461022f57806342842e0e146102685780636352211e1461028457806370a08231146102b4578063715018a6146102e45780638da5cb5b146102ee57610158565b806301ffc9a71461015d57806306fdde031461018d578063081812fc146101ab578063095ea7b3146101db57806323b872dd146101f757806326defa7314610213575b600080fd5b610177600480360381019061017291906128b3565b6104d6565b60405161018491906128fb565b60405180910390f35b6101956105b8565b6040516101a291906129a6565b60405180910390f35b6101c560048036038101906101c091906129fe565b61064a565b6040516101d29190612a6c565b60405180910390f35b6101f560048036038101906101f09190612ab3565b610666565b005b610211600480360381019061020c9190612af3565b61067c565b005b61022d60048036038101906102289190612b46565b61077e565b005b610249600480360381019061024491906129fe565b6107e1565b60405161025f9a99989796959493929190612b82565b60405180910390f35b610282600480360381019061027d9190612af3565b610c75565b005b61029e600480360381019061029991906129fe565b610c95565b6040516102ab9190612a6c565b60405180910390f35b6102ce60048036038101906102c99190612b46565b610ca7565b6040516102db9190612c56565b60405180910390f35b6102ec610d61565b005b6102f6610d75565b6040516103039190612a6c565b60405180910390f35b61032660048036038101906103219190612b46565b610d9f565b60405161033391906128fb565b60405180910390f35b610344610dbf565b60405161035191906129a6565b60405180910390f35b610374600480360381019061036f9190612c9d565b610e51565b005b610390600480360381019061038b9190612e12565b610e67565b005b6103ac60048036038101906103a791906129fe565b611021565b6040516103b99190612fd2565b60405180910390f35b6103dc60048036038101906103d79190613095565b61153b565b005b6103f860048036038101906103f391906129fe565b611560565b60405161040591906129a6565b60405180910390f35b61042860048036038101906104239190613118565b6115e6565b005b610444600480360381019061043f9190613118565b611735565b6040516104519190612c56565b60405180910390f35b610474600480360381019061046f9190613161565b611763565b6040516104819190612c56565b60405180910390f35b6104a4600480360381019061049f9190613304565b611a07565b6040516104b191906128fb565b60405180910390f35b6104d460048036038101906104cf9190612b46565b611a9b565b005b60007f80ac58cd000000000000000000000000000000000000000000000000000000007bffffffffffffffffffffffffffffffffffffffffffffffffffffffff1916827bffffffffffffffffffffffffffffffffffffffffffffffffffffffff191614806105a157507f5b5e139f000000000000000000000000000000000000000000000000000000007bffffffffffffffffffffffffffffffffffffffffffffffffffffffff1916827bffffffffffffffffffffffffffffffffffffffffffffffffffffffff1916145b806105b157506105b082611b21565b5b9050919050565b6060600080546105c790613373565b80601f01602080910402602001604051908101604052809291908181526020018280546105f390613373565b80156106405780601f1061061557610100808354040283529160200191610640565b820191906000526020600020905b81548152906001019060200180831161062357829003601f168201915b5050505050905090565b600061065582611b8b565b5061065f82611c13565b9050919050565b6106788282610673611c50565b611c58565b5050565b600073ffffffffffffffffffffffffffffffffffffffff168273ffffffffffffffffffffffffffffffffffffffff16036106ee5760006040517f64a0ae920000000000000000000000000000000000000000000000000000000081526004016106e59190612a6c565b60405180910390fd5b600061070283836106fd611c50565b611c6a565b90508373ffffffffffffffffffffffffffffffffffffffff168173ffffffffffffffffffffffffffffffffffffffff1614610778578382826040517f64283d7b00000000000000000000000000000000000000000000000000000000815260040161076f939291906133a4565b60405180910390fd5b50505050565b610786611e84565b6001600a60008373ffffffffffffffffffffffffffffffffffffffff1673ffffffffffffffffffffffffffffffffffffffff16815260200190815260200160002060006101000a81548160ff02191690831515021790555050565b600860205280600052604060002060009150905080600001805461080490613373565b80601f016020809104026020016040519081016040528092919081815260200182805461083090613373565b801561087d5780601f106108525761010080835404028352916020019161087d565b820191906000526020600020905b81548152906001019060200180831161086057829003601f168201915b50505050509080600101805461089290613373565b80601f01602080910402602001604051908101604052809291908181526020018280546108be90613373565b801561090b5780601f106108e05761010080835404028352916020019161090b565b820191906000526020600020905b8154815290600101906020018083116108ee57829003601f168201915b50505050509080600201805461092090613373565b80601f016020809104026020016040519081016040528092919081815260200182805461094c90613373565b80156109995780601f1061096e57610100808354040283529160200191610999565b820191906000526020600020905b81548152906001019060200180831161097c57829003601f168201915b5050505050908060030180546109ae90613373565b80601f01602080910402602001604051908101604052809291908181526020018280546109da90613373565b8015610a275780601f106109fc57610100808354040283529160200191610a27565b820191906000526020600020905b815481529060010190602001808311610a0a57829003601f168201915b505050505090806004018054610a3c90613373565b80601f0160208091040260200160405190810160405280929190818152602001828054610a6890613373565b8015610ab55780601f10610a8a57610100808354040283529160200191610ab5565b820191906000526020600020905b815481529060010190602001808311610a9857829003601f168201915b505050505090806005015490806006015490806007018054610ad690613373565b80601f0160208091040260200160405190810160405280929190818152602001828054610b0290613373565b8015610b4f5780601f10610b2457610100808354040283529160200191610b4f565b820191906000526020600020905b815481529060010190602001808311610b3257829003601f168201915b505050505090806008018054610b6490613373565b80601f0160208091040260200160405190810160405280929190818152602001828054610b9090613373565b8015610bdd5780601f10610bb257610100808354040283529160200191610bdd565b820191906000526020600020905b815481529060010190602001808311610bc057829003601f168201915b505050505090806009018054610bf290613373565b80601f0160208091040260200160405190810160405280929190818152602001828054610c1e90613373565b8015610c6b5780601f10610c4057610100808354040283529160200191610c6b565b820191906000526020600020905b815481529060010190602001808311610c4e57829003601f168201915b505050505090508a565b610c908383836040518060200160405280600081525061153b565b505050565b6000610ca082611b8b565b9050919050565b60008073ffffffffffffffffffffffffffffffffffffffff168273ffffffffffffffffffffffffffffffffffffffff1603610d1a5760006040517f89c62b64000000000000000000000000000000000000000000000000000000008152600401610d119190612a6c565b60405180910390fd5b600360008373ffffffffffffffffffffffffffffffffffffffff1673ffffffffffffffffffffffffffffffffffffffff168152602001908152602001600020549050919050565b610d69611e84565b610d736000611f0b565b565b6000600660009054906101000a900473ffffffffffffffffffffffffffffffffffffffff16905090565b600a6020528060005260406000206000915054906101000a900460ff1681565b606060018054610dce90613373565b80601f0160208091040260200160405190810160405280929190818152602001828054610dfa90613373565b8015610e475780601f10610e1c57610100808354040283529160200191610e47565b820191906000526020600020905b815481529060010190602001808311610e2a57829003601f168201915b5050505050905090565b610e63610e5c611c50565b8383611fd1565b5050565b600a60003373ffffffffffffffffffffffffffffffffffffffff1673ffffffffffffffffffffffffffffffffffffffff16815260200190815260200160002060009054906101000a900460ff16610ef3576040517f08c379a0000000000000000000000000000000000000000000000000000000008152600401610eea90613427565b60405180910390fd5b6000600983604051610f059190613483565b908152602001604051809103902054905060008103610f59576040517f08c379a0000000000000000000000000000000000000000000000000000000008152600401610f50906134e6565b60405180910390fd5b6040518060400160405280600681526020017f41435449564500000000000000000000000000000000000000000000000000008152508051906020012060086000838152602001908152602001600020600701604051610fb991906135a9565b604051809103902014611001576040517f08c379a0000000000000000000000000000000000000000000000000000000008152600401610ff89061360c565b60405180910390fd5b816008600083815260200190815260200160002060060181905550505050565b6110296127f4565b61103282612140565b611071576040517f08c379a000000000000000000000000000000000000000000000000000000000815260040161106890613678565b60405180910390fd5b60086000838152602001908152602001600020604051806101400160405290816000820180546110a090613373565b80601f01602080910402602001604051908101604052809291908181526020018280546110cc90613373565b80156111195780601f106110ee57610100808354040283529160200191611119565b820191906000526020600020905b8154815290600101906020018083116110fc57829003601f168201915b5050505050815260200160018201805461113290613373565b80601f016020809104026020016040519081016040528092919081815260200182805461115e90613373565b80156111ab5780601f10611180576101008083540402835291602001916111ab565b820191906000526020600020905b81548152906001019060200180831161118e57829003601f168201915b505050505081526020016002820180546111c490613373565b80601f01602080910402602001604051908101604052809291908181526020018280546111f090613373565b801561123d5780601f106112125761010080835404028352916020019161123d565b820191906000526020600020905b81548152906001019060200180831161122057829003601f168201915b5050505050815260200160038201805461125690613373565b80601f016020809104026020016040519081016040528092919081815260200182805461128290613373565b80156112cf5780601f106112a4576101008083540402835291602001916112cf565b820191906000526020600020905b8154815290600101906020018083116112b257829003601f168201915b505050505081526020016004820180546112e890613373565b80601f016020809104026020016040519081016040528092919081815260200182805461131490613373565b80156113615780601f1061133657610100808354040283529160200191611361565b820191906000526020600020905b81548152906001019060200180831161134457829003601f168201915b50505050508152602001600582015481526020016006820154815260200160078201805461138e90613373565b80601f01602080910402602001604051908101604052809291908181526020018280546113ba90613373565b80156114075780601f106113dc57610100808354040283529160200191611407565b820191906000526020600020905b8154815290600101906020018083116113ea57829003601f168201915b5050505050815260200160088201805461142090613373565b80601f016020809104026020016040519081016040528092919081815260200182805461144c90613373565b80156114995780601f1061146e57610100808354040283529160200191611499565b820191906000526020600020905b81548152906001019060200180831161147c57829003601f168201915b505050505081526020016009820180546114b290613373565b80601f01602080910402602001604051908101604052809291908181526020018280546114de90613373565b801561152b5780601f106115005761010080835404028352916020019161152b565b820191906000526020600020905b81548152906001019060200180831161150e57829003601f168201915b5050505050815250509050919050565b61154684848461067c565b61155a611551611c50565b85858585612181565b50505050565b606061156b82612140565b6115aa576040517f08c379a00000000000000000000000000000000000000000000000000000000081526004016115a190613678565b60405180910390fd5b600860008381526020019081526020016000206008016040516020016115d0919061377c565b6040516020818303038152906040529050919050565b600a60003373ffffffffffffffffffffffffffffffffffffffff1673ffffffffffffffffffffffffffffffffffffffff16815260200190815260200160002060009054906101000a900460ff16611672576040517f08c379a000000000000000000000000000000000000000000000000000000000815260040161166990613427565b60405180910390fd5b60006009826040516116849190613483565b9081526020016040518091039020549050600081036116d8576040517f08c379a00000000000000000000000000000000000000000000000000000000081526004016116cf906134e6565b60405180910390fd5b6040518060400160405280600781526020017f5245564f4b4544000000000000000000000000000000000000000000000000008152506008600083815260200190815260200160002060070190816117309190613935565b505050565b6009818051602081018201805184825260208301602085012081835280955050505050506000915090505481565b6000600a60003373ffffffffffffffffffffffffffffffffffffffff1673ffffffffffffffffffffffffffffffffffffffff16815260200190815260200160002060009054906101000a900460ff166117f1576040517f08c379a00000000000000000000000000000000000000000000000000000000081526004016117e890613427565b60405180910390fd5b600060098c6040516118039190613483565b90815260200160405180910390205414611852576040517f08c379a000000000000000000000000000000000000000000000000000000000815260040161184990613a53565b60405180910390fd5b6007600081548092919061186590613aa2565b91905055506000600754905061187b8b82612332565b8060098d60405161188c9190613483565b9081526020016040518091039020819055506040518061014001604052808d81526020018b81526020018a81526020018981526020018881526020018781526020018681526020016040518060400160405280600681526020017f41435449564500000000000000000000000000000000000000000000000000008152508152602001858152602001848152506008600083815260200190815260200160002060008201518160000190816119419190613935565b5060208201518160010190816119579190613935565b50604082015181600201908161196d9190613935565b5060608201518160030190816119839190613935565b5060808201518160040190816119999190613935565b5060a0820151816005015560c0820151816006015560e08201518160070190816119c39190613935565b506101008201518160080190816119da9190613935565b506101208201518160090190816119f19190613935565b50905050809150509a9950505050505050505050565b6000600560008473ffffffffffffffffffffffffffffffffffffffff1673ffffffffffffffffffffffffffffffffffffffff16815260200190815260200160002060008373ffffffffffffffffffffffffffffffffffffffff1673ffffffffffffffffffffffffffffffffffffffff16815260200190815260200160002060009054906101000a900460ff16905092915050565b611aa3611e84565b600073ffffffffffffffffffffffffffffffffffffffff168173ffffffffffffffffffffffffffffffffffffffff1603611b155760006040517f1e4fbdf7000000000000000000000000000000000000000000000000000000008152600401611b0c9190612a6c565b60405180910390fd5b611b1e81611f0b565b50565b60007f01ffc9a7000000000000000000000000000000000000000000000000000000007bffffffffffffffffffffffffffffffffffffffffffffffffffffffff1916827bffffffffffffffffffffffffffffffffffffffffffffffffffffffff1916149050919050565b600080611b9783612350565b9050600073ffffffffffffffffffffffffffffffffffffffff168173ffffffffffffffffffffffffffffffffffffffff1603611c0a57826040517f7e273289000000000000000000000000000000000000000000000000000000008152600401611c019190612c56565b60405180910390fd5b80915050919050565b60006004600083815260200190815260200160002060009054906101000a900473ffffffffffffffffffffffffffffffffffffffff169050919050565b600033905090565b611c65838383600161238d565b505050565b600080611c7684612350565b9050600073ffffffffffffffffffffffffffffffffffffffff168373ffffffffffffffffffffffffffffffffffffffff1614611cb857611cb7818486612552565b5b600073ffffffffffffffffffffffffffffffffffffffff168173ffffffffffffffffffffffffffffffffffffffff1614611d4957611cfa60008560008061238d565b6001600360008373ffffffffffffffffffffffffffffffffffffffff1673ffffffffffffffffffffffffffffffffffffffff168152602001908152602001600020600082825403925050819055505b600073ffffffffffffffffffffffffffffffffffffffff168573ffffffffffffffffffffffffffffffffffffffff1614611dcc576001600360008773ffffffffffffffffffffffffffffffffffffffff1673ffffffffffffffffffffffffffffffffffffffff168152602001908152602001600020600082825401925050819055505b846002600086815260200190815260200160002060006101000a81548173ffffffffffffffffffffffffffffffffffffffff021916908373ffffffffffffffffffffffffffffffffffffffff160217905550838573ffffffffffffffffffffffffffffffffffffffff168273ffffffffffffffffffffffffffffffffffffffff167fddf252ad1be2c89b69c2b068fc378daa952ba7f163c4a11628f55a4df523b3ef60405160405180910390a4809150509392505050565b611e8c611c50565b73ffffffffffffffffffffffffffffffffffffffff16611eaa610d75565b73ffffffffffffffffffffffffffffffffffffffff1614611f0957611ecd611c50565b6040517f118cdaa7000000000000000000000000000000000000000000000000000000008152600401611f009190612a6c565b60405180910390fd5b565b6000600660009054906101000a900473ffffffffffffffffffffffffffffffffffffffff16905081600660006101000a81548173ffffffffffffffffffffffffffffffffffffffff021916908373ffffffffffffffffffffffffffffffffffffffff1602179055508173ffffffffffffffffffffffffffffffffffffffff168173ffffffffffffffffffffffffffffffffffffffff167f8be0079c531659141344cd1fd0a4f28419497f9722a3daafe3b4186f6b6457e060405160405180910390a35050565b600073ffffffffffffffffffffffffffffffffffffffff168273ffffffffffffffffffffffffffffffffffffffff160361204257816040517f5b08ba180000000000000000000000000000000000000000000000000000000081526004016120399190612a6c565b60405180910390fd5b80600560008573ffffffffffffffffffffffffffffffffffffffff1673ffffffffffffffffffffffffffffffffffffffff16815260200190815260200160002060008473ffffffffffffffffffffffffffffffffffffffff1673ffffffffffffffffffffffffffffffffffffffff16815260200190815260200160002060006101000a81548160ff0219169083151502179055508173ffffffffffffffffffffffffffffffffffffffff168373ffffffffffffffffffffffffffffffffffffffff167f17307eab39ab6107e8899845ad3d59bd9653f200f220920489ca2b5937696c318360405161213391906128fb565b60405180910390a3505050565b60008073ffffffffffffffffffffffffffffffffffffffff1661216283612350565b73ffffffffffffffffffffffffffffffffffffffff1614159050919050565b60008373ffffffffffffffffffffffffffffffffffffffff163b111561232b578273ffffffffffffffffffffffffffffffffffffffff1663150b7a02868685856040518563ffffffff1660e01b81526004016121e09493929190613b3f565b6020604051808303816000875af192505050801561221c57506040513d601f19601f820116820180604052508101906122199190613ba0565b60015b6122a0573d806000811461224c576040519150601f19603f3d011682016040523d82523d6000602084013e612251565b606091505b50600081510361229857836040517f64a0ae9200000000000000000000000000000000000000000000000000000000815260040161228f9190612a6c565b60405180910390fd5b805181602001fd5b63150b7a0260e01b7bffffffffffffffffffffffffffffffffffffffffffffffffffffffff1916817bffffffffffffffffffffffffffffffffffffffffffffffffffffffff19161461232957836040517f64a0ae920000000000000000000000000000000000000000000000000000000081526004016123209190612a6c565b60405180910390fd5b505b5050505050565b61234c828260405180602001604052806000815250612616565b5050565b60006002600083815260200190815260200160002060009054906101000a900473ffffffffffffffffffffffffffffffffffffffff169050919050565b80806123c65750600073ffffffffffffffffffffffffffffffffffffffff168273ffffffffffffffffffffffffffffffffffffffff1614155b156124fa5760006123d684611b8b565b9050600073ffffffffffffffffffffffffffffffffffffffff168373ffffffffffffffffffffffffffffffffffffffff161415801561244157508273ffffffffffffffffffffffffffffffffffffffff168173ffffffffffffffffffffffffffffffffffffffff1614155b801561245457506124528184611a07565b155b1561249657826040517fa9fbf51f00000000000000000000000000000000000000000000000000000000815260040161248d9190612a6c565b60405180910390fd5b81156124f857838573ffffffffffffffffffffffffffffffffffffffff168273ffffffffffffffffffffffffffffffffffffffff167f8c5be1e5ebec7d5bd14f71427d1e84f3dd0314c0f7b2291e5b200ac8c7c3b92560405160405180910390a45b505b836004600085815260200190815260200160002060006101000a81548173ffffffffffffffffffffffffffffffffffffffff021916908373ffffffffffffffffffffffffffffffffffffffff16021790555050505050565b61255d83838361263a565b61261157600073ffffffffffffffffffffffffffffffffffffffff168373ffffffffffffffffffffffffffffffffffffffff16036125d257806040517f7e2732890000000000000000000000000000000000000000000000000000000081526004016125c99190612c56565b60405180910390fd5b81816040517f177e802f000000000000000000000000000000000000000000000000000000008152600401612608929190613bcd565b60405180910390fd5b505050565b61262083836126fb565b61263561262b611c50565b6000858585612181565b505050565b60008073ffffffffffffffffffffffffffffffffffffffff168373ffffffffffffffffffffffffffffffffffffffff16141580156126f257508273ffffffffffffffffffffffffffffffffffffffff168473ffffffffffffffffffffffffffffffffffffffff1614806126b357506126b28484611a07565b5b806126f157508273ffffffffffffffffffffffffffffffffffffffff166126d983611c13565b73ffffffffffffffffffffffffffffffffffffffff16145b5b90509392505050565b600073ffffffffffffffffffffffffffffffffffffffff168273ffffffffffffffffffffffffffffffffffffffff160361276d5760006040517f64a0ae920000000000000000000000000000000000000000000000000000000081526004016127649190612a6c565b60405180910390fd5b600061277b83836000611c6a565b9050600073ffffffffffffffffffffffffffffffffffffffff168173ffffffffffffffffffffffffffffffffffffffff16146127ef5760006040517f73c6ac6e0000000000000000000000000000000000000000000000000000000081526004016127e69190612a6c565b60405180910390fd5b505050565b604051806101400160405280606081526020016060815260200160608152602001606081526020016060815260200160008152602001600081526020016060815260200160608152602001606081525090565b6000604051905090565b600080fd5b600080fd5b60007fffffffff0000000000000000000000000000000000000000000000000000000082169050919050565b6128908161285b565b811461289b57600080fd5b50565b6000813590506128ad81612887565b92915050565b6000602082840312156128c9576128c8612851565b5b60006128d78482850161289e565b91505092915050565b60008115159050919050565b6128f5816128e0565b82525050565b600060208201905061291060008301846128ec565b92915050565b600081519050919050565b600082825260208201905092915050565b60005b83811015612950578082015181840152602081019050612935565b60008484015250505050565b6000601f19601f8301169050919050565b600061297882612916565b6129828185612921565b9350612992818560208601612932565b61299b8161295c565b840191505092915050565b600060208201905081810360008301526129c0818461296d565b905092915050565b6000819050919050565b6129db816129c8565b81146129e657600080fd5b50565b6000813590506129f8816129d2565b92915050565b600060208284031215612a1457612a13612851565b5b6000612a22848285016129e9565b91505092915050565b600073ffffffffffffffffffffffffffffffffffffffff82169050919050565b6000612a5682612a2b565b9050919050565b612a6681612a4b565b82525050565b6000602082019050612a816000830184612a5d565b92915050565b612a9081612a4b565b8114612a9b57600080fd5b50565b600081359050612aad81612a87565b92915050565b60008060408385031215612aca57612ac9612851565b5b6000612ad885828601612a9e565b9250506020612ae9858286016129e9565b9150509250929050565b600080600060608486031215612b0c57612b0b612851565b5b6000612b1a86828701612a9e565b9350506020612b2b86828701612a9e565b9250506040612b3c868287016129e9565b9150509250925092565b600060208284031215612b5c57612b5b612851565b5b6000612b6a84828501612a9e565b91505092915050565b612b7c816129c8565b82525050565b6000610140820190508181036000830152612b9d818d61296d565b90508181036020830152612bb1818c61296d565b90508181036040830152612bc5818b61296d565b90508181036060830152612bd9818a61296d565b90508181036080830152612bed818961296d565b9050612bfc60a0830188612b73565b612c0960c0830187612b73565b81810360e0830152612c1b818661296d565b9050818103610100830152612c30818561296d565b9050818103610120830152612c45818461296d565b90509b9a5050505050505050505050565b6000602082019050612c6b6000830184612b73565b92915050565b612c7a816128e0565b8114612c8557600080fd5b50565b600081359050612c9781612c71565b92915050565b60008060408385031215612cb457612cb3612851565b5b6000612cc285828601612a9e565b9250506020612cd385828601612c88565b9150509250929050565b600080fd5b600080fd5b7f4e487b7100000000000000000000000000000000000000000000000000000000600052604160045260246000fd5b612d1f8261295c565b810181811067ffffffffffffffff82111715612d3e57612d3d612ce7565b5b80604052505050565b6000612d51612847565b9050612d5d8282612d16565b919050565b600067ffffffffffffffff821115612d7d57612d7c612ce7565b5b612d868261295c565b9050602081019050919050565b82818337600083830152505050565b6000612db5612db084612d62565b612d47565b905082815260208101848484011115612dd157612dd0612ce2565b5b612ddc848285612d93565b509392505050565b600082601f830112612df957612df8612cdd565b5b8135612e09848260208601612da2565b91505092915050565b60008060408385031215612e2957612e28612851565b5b600083013567ffffffffffffffff811115612e4757612e46612856565b5b612e5385828601612de4565b9250506020612e64858286016129e9565b9150509250929050565b600082825260208201905092915050565b6000612e8a82612916565b612e948185612e6e565b9350612ea4818560208601612932565b612ead8161295c565b840191505092915050565b612ec1816129c8565b82525050565b6000610140830160008301518482036000860152612ee58282612e7f565b91505060208301518482036020860152612eff8282612e7f565b91505060408301518482036040860152612f198282612e7f565b91505060608301518482036060860152612f338282612e7f565b91505060808301518482036080860152612f4d8282612e7f565b91505060a0830151612f6260a0860182612eb8565b5060c0830151612f7560c0860182612eb8565b5060e083015184820360e0860152612f8d8282612e7f565b915050610100830151848203610100860152612fa98282612e7f565b915050610120830151848203610120860152612fc58282612e7f565b9150508091505092915050565b60006020820190508181036000830152612fec8184612ec7565b905092915050565b600067ffffffffffffffff82111561300f5761300e612ce7565b5b6130188261295c565b9050602081019050919050565b600061303861303384612ff4565b612d47565b90508281526020810184848401111561305457613053612ce2565b5b61305f848285612d93565b509392505050565b600082601f83011261307c5761307b612cdd565b5b813561308c848260208601613025565b91505092915050565b600080600080608085870312156130af576130ae612851565b5b60006130bd87828801612a9e565b94505060206130ce87828801612a9e565b93505060406130df878288016129e9565b925050606085013567ffffffffffffffff811115613100576130ff612856565b5b61310c87828801613067565b91505092959194509250565b60006020828403121561312e5761312d612851565b5b600082013567ffffffffffffffff81111561314c5761314b612856565b5b61315884828501612de4565b91505092915050565b6000806000806000806000806000806101408b8d03121561318557613184612851565b5b60008b013567ffffffffffffffff8111156131a3576131a2612856565b5b6131af8d828e01612de4565b9a505060206131c08d828e01612a9e565b99505060408b013567ffffffffffffffff8111156131e1576131e0612856565b5b6131ed8d828e01612de4565b98505060608b013567ffffffffffffffff81111561320e5761320d612856565b5b61321a8d828e01612de4565b97505060808b013567ffffffffffffffff81111561323b5761323a612856565b5b6132478d828e01612de4565b96505060a08b013567ffffffffffffffff81111561326857613267612856565b5b6132748d828e01612de4565b95505060c06132858d828e016129e9565b94505060e06132968d828e016129e9565b9350506101008b013567ffffffffffffffff8111156132b8576132b7612856565b5b6132c48d828e01612de4565b9250506101208b013567ffffffffffffffff8111156132e6576132e5612856565b5b6132f28d828e01612de4565b9150509295989b9194979a5092959850565b6000806040838503121561331b5761331a612851565b5b600061332985828601612a9e565b925050602061333a85828601612a9e565b9150509250929050565b7f4e487b7100000000000000000000000000000000000000000000000000000000600052602260045260246000fd5b6000600282049050600182168061338b57607f821691505b60208210810361339e5761339d613344565b5b50919050565b60006060820190506133b96000830186612a5d565b6133c66020830185612b73565b6133d36040830184612a5d565b949350505050565b7f4e6f7420617574686f72697a6564000000000000000000000000000000000000600082015250565b6000613411600e83612921565b915061341c826133db565b602082019050919050565b6000602082019050818103600083015261344081613404565b9050919050565b600081905092915050565b600061345d82612916565b6134678185613447565b9350613477818560208601612932565b80840191505092915050565b600061348f8284613452565b915081905092915050565b7f4c6963656e736520646f6573206e6f7420657869737400000000000000000000600082015250565b60006134d0601683612921565b91506134db8261349a565b602082019050919050565b600060208201905081810360008301526134ff816134c3565b9050919050565b600081905092915050565b60008190508160005260206000209050919050565b6000815461353381613373565b61353d8186613506565b94506001821660008114613558576001811461356d576135a0565b60ff19831686528115158202860193506135a0565b61357685613511565b60005b8381101561359857815481890152600182019150602081019050613579565b838801955050505b50505092915050565b60006135b58284613526565b915081905092915050565b7f4c6963656e7365206973206e6f74206163746976650000000000000000000000600082015250565b60006135f6601583612921565b9150613601826135c0565b602082019050919050565b60006020820190508181036000830152613625816135e9565b9050919050565b7f546f6b656e20646f6573206e6f74206578697374000000000000000000000000600082015250565b6000613662601483612921565b915061366d8261362c565b602082019050919050565b6000602082019050818103600083015261369181613655565b9050919050565b7f697066733a2f2f00000000000000000000000000000000000000000000000000600082015250565b60006136ce600783613447565b91506136d982613698565b600782019050919050565b60008190508160005260206000209050919050565b6000815461370681613373565b6137108186613447565b9450600182166000811461372b576001811461374057613773565b60ff1983168652811515820286019350613773565b613749856136e4565b60005b8381101561376b5781548189015260018201915060208101905061374c565b838801955050505b50505092915050565b6000613787826136c1565b915061379382846136f9565b915081905092915050565b60006020601f8301049050919050565b600082821b905092915050565b6000600883026137eb7fffffffffffffffffffffffffffffffffffffffffffffffffffffffffffffffff826137ae565b6137f586836137ae565b95508019841693508086168417925050509392505050565b6000819050919050565b600061383261382d613828846129c8565b61380d565b6129c8565b9050919050565b6000819050919050565b61384c83613817565b61386061385882613839565b8484546137bb565b825550505050565b600090565b613875613868565b613880818484613843565b505050565b5b818110156138a45761389960008261386d565b600181019050613886565b5050565b601f8211156138e9576138ba816136e4565b6138c38461379e565b810160208510156138d2578190505b6138e66138de8561379e565b830182613885565b50505b505050565b600082821c905092915050565b600061390c600019846008026138ee565b1980831691505092915050565b600061392583836138fb565b9150826002028217905092915050565b61393e82612916565b67ffffffffffffffff81111561395757613956612ce7565b5b6139618254613373565b61396c8282856138a8565b600060209050601f83116001811461399f576000841561398d578287015190505b6139978582613919565b8655506139ff565b601f1984166139ad866136e4565b60005b828110156139d5578489015182556001820191506020850194506020810190506139b0565b868310156139f257848901516139ee601f8916826138fb565b8355505b6001600288020188555050505b505050505050565b7f4c6963656e736520494420616c72656164792065786973747300000000000000600082015250565b6000613a3d601983612921565b9150613a4882613a07565b602082019050919050565b60006020820190508181036000830152613a6c81613a30565b9050919050565b7f4e487b7100000000000000000000000000000000000000000000000000000000600052601160045260246000fd5b6000613aad826129c8565b91507fffffffffffffffffffffffffffffffffffffffffffffffffffffffffffffffff8203613adf57613ade613a73565b5b600182019050919050565b600081519050919050565b600082825260208201905092915050565b6000613b1182613aea565b613b1b8185613af5565b9350613b2b818560208601612932565b613b348161295c565b840191505092915050565b6000608082019050613b546000830187612a5d565b613b616020830186612a5d565b613b6e6040830185612b73565b8181036060830152613b808184613b06565b905095945050505050565b600081519050613b9a81612887565b92915050565b600060208284031215613bb657613bb5612851565b5b6000613bc484828501613b8b565b91505092915050565b6000604082019050613be26000830185612a5d565b613bef6020830184612b73565b939250505056fea2646970667358221220c52bd28868bb6bb76e0b83a41cb1ab971ab417b85664dac82fd15116fd0e75be64736f6c63430008180033",
    "linkReferences": {},
    "deployedLinkReferences": {}
}